:10000000D6C3000018C4000016C4000014C40000C9
:1000100012C4000010C400000EC400000CC4000094
:100020000AC4000008C400000C94812A0C944D2BD3
:100030000C94E52500C40000FEC30000FCC30000D2
:10004000FAC30000F8C30000F6C30000F4C30000C8
:10005000F2C300000C945C26EEC30000ECC3000069
:10006000EAC30000E8C30000E6C30000E4C30000E8
:10007000E2C30000E0C30000DEC30000DCC30000F8
:10008000DAC30000D8C30000D6C30000D4C3000008
:10009000D2C30000D0C30000CEC30000CCC3000018
:1000A000CAC30000C8C30000C6C3000000000000AF
:1000B0000000000004000500060007000800090019
:1000C0000A000B000C000D000E000F0010001100C4
:1000D0001200130014001500160017001800190074
:1000E0001A001B001C001D001E001F002000210024
:1000F00022002300240025002600270028002900D4
:100100002A002B002C002D002E002F003000310083
:100110003200330034003500360037003800390033
:100120003A003B003C003D003E003F0040004100E3
:100130004200430044004500460047004800490093
:100140004A004B004C004D004E004F005000510043
:1001500052005300540055005600570058005900F3
:100160005A005B005C005D005E005F0060006100A3
:100170006200630064006541A500670068006900D3
:100180006A006B006C006D006E006F007000710003
:1001900072007300740075007600770078007900B3
:1001A0007A007B007C007D007E00A800A900AA00E8
:1001B0000000000000008500000087008800890022
:1001C0008A008B00000000000000000090009100F9
:1001D000000000000000000000000000000000001F
:1001E000000000000000000000000000000000000F
:1001F00000000000000000000000000000000000FF
:1002000000000000000000000000000000000000EE
:1002100000000000000000000000000000000000DE
:1002200000000000000000000000000000000000CE
:1002300000000000000000000000000000000000BE
:1002400000000000000000000000000000000000AE
:10025000000000000000000000000000000000009E
:10026000000000000000000000000000E000E100CD
:100270000041E300E400E500E600E70000000000C4
:10028000000000000000000000000000000000006E
:10029000000000000000000000000000000000005E
:1002A000000000000000000000000000000000004E
:1002B000000000005000AE0001004F00B600010039
:1002C000010050000100510052004F00A800AB0097
:1002D00001004B000100B700510001000100AC001B
:1002E00052000100010001003A003B003C003D00CB
:1002F0003E003F0040004100420043000100010079
:100300004C0001000100440045004A004600310055
:1003100001004E004D002900AA00A90001000100C3
:100320000100025201000100010001000100010072
:1003300001000100010001000100010001000100B5
:100340000100D90001000100DA00010001000100F4
:100350000100010001000100010001000100010095
:100360000100010001000100010001000100010085
:100370000100010001000100010001000100010075
:100380000100010001000100010001000100010065
:100390000100010001000100010001000100010055
:1003A0000100010001000100010001000100010045
:1003B0000000000000000100000001000100010039
:1003C0000100010000000000000000000100010029
:1003D000000000000000000000000000000000001D
:1003E000000000000000000000000000000000000D
:1003F00000000000000000000000000000000000FD
:1004000000000000000000000000000000000000EC
:1004100000000000000000000000000000000000DC
:1004200000000000000000000000000000000000CC
:1004300000000000000000000000000000000000BC
:1004400000000000000000000000000000000000AC
:10045000000000000000000000000000000000009C
:10046000000000000000000000000000010001008A
:100470000100E20001000100010001000000000095
:10048000000000000000000000000000000000006C
:10049000000000000000000000000000000000005C
:1004A000000000000000000000000000000000004C
:1004B0000000000004000500060007000800090015
:1004C0000A000B000C000D000E000F0010001100C0
:1004D0001200130014001500160017001800190070
:1004E0001A001B001C001D001E001F002000210020
:1004F00022002300240025002600270028002900D0
:100500002A002B002C002D002E002F00300031007F
:100510000000330034003500360037003800390061
:100520003A0000523C003D003E003F0040004100C8
:10053000420043004400450046004700480049008F
:100540004A004B004C004D004E004F00500051003F
:1005500052005300540055005600570058005900EF
:100560005A005B005C005D005E005F00600061009F
:100570006200630000006541000000000000000010
:10058000000000000000000000000000000000006B
:10059000000000000000000000000000000000005B
:1005A000000000000000000000000000000000004B
:1005B000000000000000000000000000000000003B
:1005C000000000000000000000000000000000002B
:1005D000000000000000000000000000000000001B
:1005E000000000000000000000000000000000000B
:1005F00000000000000000000000000000000000FB
:1006000000000000000000000000000000000000EA
:1006100000000000000000000000000000000000DA
:1006200000000000000000000000000000000000CA
:1006300000000000000000000000000000000000BA
:1006400000000000000000000000000000000000AA
:10065000000000000000000000000000000000009A
:10066000000000000000000000000000E000E100C9
:10067000E200E300E400E500E600E700000000001F
:10068000000000000000000000000000000000006A
:10069000000000000000000000000000000000005A
:1006A0000000000000000000000000002A035500C8
:1006B00053004200200074006F00200055005300DA
:1006C0004200200043006F006E007600650072005B
:1006D0007400650072000000080351004D004B00DB
:1006E00000000403090409023B00020100A0FA090A
:1006F000040000010301010009211101000122444D
:10070000000705810308000109040100010300003E
:100710000009211101000122320007058203200097
:10072000011201000200000008EDFE5B0001000163
:1007300002000105010980A101850319012AB70002
:10074000150126B700950175108100C0050C09013F
:10075000A101850419012AA002150126A002950114
:1007600075108100C005010906A101050719E029DE
:10077000E71500250195087501810295017508812D
:10078000010507190029FF150026FF0095067508C9
:100790008100050819012905150025019505750138
:1007A0009102950175039101C0006B09551911243F
:1007B0001FBECFEFDAE0DEBFCDBF04B603FE19C027
:1007C00080918A0490918B04A0918C04B0918D0447
:1007D0008730904BA740B04B61F410928A0410927E
:1007E0008B0410928C0410928D04E0E0F8E30995DC
:1007F00000C011E0A0E0B1E0E6E3FBE502C0059037
:100800000D92A43EB107D9F724E0A4EEB1E001C0F7
:100810001D92AA38B207E1F713E0C7EDD3E004C098
:100820002197FE010E94E12CC53DD107C9F70E9426
:100830004C160C94662DE4CB80E00895089580E07A
:100840000895A8E0B0E0E7E2F4E00C94F72C2983E7
:100850003A834B835C836D837E838F8398878091FB
:100860001D03822B80931D03FE013396AE01475F6B
:100870005F4F2191243060F0AFE1B3E080E090E081
:100880003C9131110CC0835E9C4FDC0112962C937D
:10089000E417F50771F72896E2E00C94132D1196F2
:1008A00001968630910561F7F3CF860F911D860F73
:1008B000911DFC014587568781E00895FC018789D9
:1008C0000895CF93DF93EC018C819D81FC01019011
:1008D000F081E02D0480F581E02D6E8109951F8661
:1008E000188A81E08A8B1E821B8A1C8A1D8A1E8AB6
:1008F0001F8A80E0DF91CF910895FC0186810895E1
:1009000081E0633009F080E0089581E0613009F012
:1009100080E00895860F911D860F911DFC0185854D
:1009200096850895EF92FF92CF93DF93FC01828921
:10093000823039F16787408BD70113969C911397CA
:1009400093709330F1F412969C91129797FF19C00F
:1009500016962C91308D321708F4208F282F30E016
:10096000D901AA0FBB1FA20FB31FAE0FBF1F9F70ED
:1009700017969D93E7019C819D9394E09C938F5FD4
:10098000828BDF91CF91FF90EF900895EF92FF92CD
:100990000F930297C7DF0F91FF90EF90089508958E
:1009A000A2E1B0E0E6EDF4E00C94F22C7C01FC0155
:1009B0008789811106C0D12C8D2D6296E7E00C94B9
:1009C0000E2D0E946A19F701038914892589368939
:1009D000DC01CB01801B910BA20BB30B62F383856F
:1009E000898B1A8ACE0101968C0140969C01428522
:1009F0006681848195810E949E1ED82E811114C02B
:100A000029893A892330310578F0F7018585968563
:100A1000009751F0FC010190F081E02D0190F081F0
:100A2000E02D40E0B70109950E946A19F701208D79
:100A3000DC01CB01820F911DA11DB11D838B948B15
:100A4000A58BB68BB9CFACE3B0E0E9E2F5E00C944E
:100A5000E82C5C01462E342E522EFC018681811139
:100A600027C184809580108EF4010190F081E02DE3
:100A70000190F081E02D60E0C40109957C010097B0
:100A800029F486EDEC96E1E10C94042DFC016080E4
:100A9000718087ED61147104A9F3650187E0C80EC8
:100AA000D11CC082D1825482CE018A968C0128E06A
:100AB00030E040E060E0F501848195810E94D01D26
:100AC0008CAF811569F0F70160827182F5010190A8
:100AD000F081E02D0480F581E02DC501099532C03B
:100AE0001AA5F70160827182F4010190F081E02D76
:100AF0000280F381E02D232D40E0642DC40109958F
:100B0000F5018683811509F4D5C099A99087282F0E
:100B100040E060E0848195810E94521E8CAFF40118
:100B20000190F081E02DD50116966C91D7011496B5
:100B30001C92811549F00480F581E02DC4010995CE
:100B4000F50116828CAD9ECF0190F081E02DC4019D
:100B50000995009709F495CFFC015482111581F095
:100B6000133108F012E1212F30E0CE018A968C017A
:100B700040E0F5016681848195810E94D01D8CAF93
:100B80005CAC5110A3CF4BAC94E1892E91E0992E2F
:100B9000350182E0680E711C7E0181E1E80EF11CD6
:100BA000541007C0F5018289823041F181ED8CAF8C
:100BB0008DCF89829A826B827C821E861F86188ADC
:100BC00019A21AA21BA219A6EE82FF82E886F98654
:100BD0008D818B878A87EC86FD86CE0101968C01FC
:100BE000252D40E0F5016681848195810E941C1EBF
:100BF000F5018289823011F05394D2CF960142E000
:100C0000F5016681848195810E947D1A8CAF68EE22
:100C100073E080E090E00E946D19F501278540E0C7
:100C20006681848195810E947B1E8CAF81114ECF9D
:100C300068EE73E080E090E00E946D1940E060E0B3
:100C4000C5010E94C6218CAF811140CF20E040E059
:100C500060E0C5010E949D218CAF8AE191E089830B
:100C60009A83AE014F5F5F4F60E070E0C5010E9464
:100C70002F2180E28CAF8CAD811104C091E0F50191
:100C8000978B00CF86958CAFCE01CC966C0181E01E
:100C9000E82EF12C00E022E040E060E0C5010E9477
:100CA000712169E170E080E090E00E946D19E3CF6E
:100CB00089EDE8CE84EDE6CEA4E0B0E0E2E6F6E031
:100CC0000C94EB2C6C016B837C8349835A834C011D
:100CD00082E1880E911C560187E0A80EB11C12E03B
:100CE000360180E1680E711C8B819C81892B29F46F
:100CF000BEC0833059F18430E1F1F60180A1823029
:100D000011F1B8F7811109C0148385819681878319
:100D100090871287118781E080A3CE010396AC01F2
:100D20000297BC01C5010E942625811509F49FC0C8
:100D3000F6010580F681E02D8081D60191968C9395
:100D40008181F60182A3F60185829682F60182A155
:100D50008530A1F158F5823079F1843061F1F601E6
:100D6000858196818783908784818287818784E0CB
:100D700080A3F60182A1843019F1853009F444C0C2
:100D8000823009F06AC0CE010396AC010297BC0123
:100D9000C5010E942625811509F469C0F6018589DF
:100DA00084A3F6016582768210A29ECF8132B9F6C5
:100DB00081A1825003C013A2F60187E08483CFCFC4
:100DC000CE010396AC010297BC01C5010E94262505
:100DD000811509F44CC0F6018589833011F78689A5
:100DE0008130F9F6878990A5911559F08115C9F2DE
:100DF00091E0F60193A3928996A3938997A385A383
:100E0000D0CF813071F6F4CFCE010396AC010297BA
:100E1000BC01C5010E942625811549F1F60183A177
:100E2000811509F4BECF82819381009709F4B9CF6F
:100E3000FC010190F081E02D0190F081E02D760120
:100E400020E1E20EF11CD60195960C9112962C91A0
:100E50004E9112976C910995A4CF8585813058F0F9
:100E600089F0F60186859785892B09F49ACF249617
:100E7000EEE00C94072D81A18250990B868797870D
:100E800081E085872B813C8149815A81F6018685E5
:100E90009785009719F02115310549F42B833C8380
:100EA00049835A83892BE9F6F6011586DACF4F5F1D
:100EB0005F4F0197F6018687978721503109E6CF6A
:100EC0000895FECF08950895FECF0895482F80E13C
:100ED000489F90011124205E310990911D03892FB4
:100EE00090E02830310510F080E090E0EFE1F3E091
:100EF00061E070E02191243078F0322F32953F701C
:100F000034130AC02F70DB0102C0AA0FBB1F2A9541
:100F1000E2F79D018A2B932B23E0E532F20751F78C
:100F200008950895CF92DF92EF92FF920F93CF939F
:100F3000DF930F92CDB7DEB789838091820281154E
:100F400079F06E018FEFC81AD80A31E0E32EF12C48
:100F500000E022E040E060E08BE692E00E94712138
:100F600080916902811579F06E018FEFC81AD80A55
:100F700021E0E22EF12C00E022E040E060E082E59A
:100F800092E00E94712180915002811579F06E01EA
:100F90008FEFC81AD80A91E0E92EF12C00E022E088
:100FA00040E060E089E392E00E9471218091370285
:100FB000811579F06E018FEFC81AD80A81E0E82E0A
:100FC000F12C00E022E040E060E080E292E00E944C
:100FD00071218981B7D20F90DF91CF910F91FF904E
:100FE000EF90DF90CF9008950F931F93CF93609170
:100FF0001E0270911F024091120250911302209123
:101000000602309107028091FA019091FB01E09174
:10101000EE01F091EF016E177F07B9F4E091EC015A
:10102000F091ED01E417F50781F4E091EA01F09108
:10103000EB01E217F30749F4E091E801F091E901CF
:10104000C0E0E817F90709F45BC06093EE01709304
:10105000EF014093EC015093ED012093EA013093AE
:10106000EB018093E8019093E901EDE1F3E088E082
:1010700011928A95E9F7209116023091170240915A
:1010800018025091190260911A0270911B0280910E
:101090001C0290911D02D5DB20910A0230910B02B7
:1010A00040910C0250910D0260910E0270910F025E
:1010B0008091100290911102C4DB2091FE013091C9
:1010C000FF01409100025091010260910202709173
:1010D00003028091040290910502B3DB2091F2019A
:1010E0003091F3014091F4015091F5016091F601C6
:1010F0007091F7018091F8019091F901A2DBC1E0B4
:101100000E9444268C0186EA92E00E941A20C801BF
:101110000E94D52586EA92E00E9479199091E70114
:10112000891759F086EA92E00E9479198093E701C5
:10113000803919F40E940B18F5DEC6DE8C2FCF9192
:101140001F910F910895FC016483758380E291E003
:10115000808391838EE391E082839383138A148A40
:10116000158A168A178A81E0828B118A178288E095
:1011700080878CE381871286138684E084871586B6
:101180001686178661157105C1F0DB01AA5ABF4F9B
:1011900080E090E02D913D911297232B49F48B969E
:1011A000880F991F860F971FDC01ED93FD9308951B
:1011B000129601968031910569F708952E9A089547
:1011C0002E988EBD0DB407FEFDCF1EBC0DB407FEDC
:1011D000FDCFF4DF8EB508952E9882608EBD0DB4DC
:1011E00007FEFDCF6EBD0DB407FEFDCFE7CFCF9359
:1011F000DF93269AE3DF219A229A2398209A80E5AA
:101200008CBD81E08DBD259868E188E8E5DF60E26E
:1012100088E7E2DF60E088E7DFDFC1E0D0E088E672
:10122000CFDF80FD3DC02196D1F784E192E080932D
:1012300078029093790288E092E080935F02909325
:1012400060028CEF91E0809346029093470280EF1A
:1012500091E080932D0290932E0233DEDF91CF91A7
:101260000895803CD9F060E288ECB6DF61E080E868
:10127000B3DFDBCF88EDA4DF81FD0BC069EC88ED27
:10128000ABDF82E08093E601EECF88ED99DF81FD50
:10129000F5CF6BEC88EDA0DF83E0F4CF81E0F2CFF7
:1012A00061EC88ED99DF60E680ED96DF64E088EE22
:1012B00093DF88EE85DF82FFFCCF88EF81DF807CC3
:1012C0008038C1F270F68111E0CF61ED88ED84DFE6
:1012D0001092E601C8CF86EA92E00E94C91966EA38
:1012E00072E085E992E00E94E82366EA72E084E811
:1012F00092E00E94E82366EA72E08BE692E023DF48
:1013000066EA72E082E592E01EDF66EA72E089E357
:1013100092E019DF66EA72E080E292E014DF80EB8F
:1013200091E08093140290931502809308029093A9
:1013300009028093FC019093FD018093F00190934A
:10134000F10108958330E0F4962F942B9031C0F48E
:1013500020E1829FC0011124860F911D82959295F4
:10136000907F9827807F9827840F911DFC01EE0FB6
:10137000FF1FE455FF4F85919591282F822F0895E7
:1013800021E090E0FBCFDECF089581E0089581E079
:101390000895FBCF089581E0089581E00895FDCF81
:1013A000089508950895FDCF089508950895A6E03D
:1013B000B0E0EDEDF9E00C94F62C49835A839E835E
:1013C00030912A0389819A81311117C03E813115EC
:1013D00089F0211579F0E5D4182F682F89819A8139
:1013E000C0D469817A81812F0E94A9142696E3E0F6
:1013F0000C94122DC6D4182FF4CFD3D469817A81DE
:10140000F3CFFC01262F4081518162817381848159
:101410009581CDCFCF93DF93EC0161E0F2DFBE0188
:10142000B6DF811529F061E0CE01EBDFBE01B1DF4F
:10143000DF91CF9108950F931F93CF93DF93EC012A
:1014400060E0DFDF8C01BE01ADDFBE01C801ABDFB4
:10145000DF91CF911F910F9108950F931F93CF9319
:10146000DF93EC0161E0CDDF8C01BE0194DF8111DF
:1014700006C080E0DF91CF911F910F910895BE01CA
:10148000C8018DDF8115A9F3BE01C8010E94C417F0
:10149000811579F3BE01C8010E948916811549F3AF
:1014A000BE01C8010E946216811519F3BE01C80170
:1014B0000E94AC158115E9F2BE01C8010E94BE155B
:1014C0008115B9F2BE01C8010E94D815D3CF21E021
:1014D00030E002C0220F331F8A95E2F7C9017CC3B6
:1014E000CF93C82F81E090E00C2E02C0880F991F87
:1014F0000A94E2F70E94C4128C2FE9DFCF9108957D
:1015000081E0089581E00895FBCF0895CF93C82F1F
:1015100012D38C2FF7DF8C2FF7DFCF91089581E066
:10152000F5DF0C94802680E0F1DF0C94A4263DDFEB
:101530000E947E2515C016D039DF0C94822581E0EB
:1015400008950895CF93DF93D82FF9DFC82F811521
:1015500011F08D2FF6DF8C2FDF91CF910895089534
:1015600080E0E0CC0E940B18DDCCCF930E940B18DA
:10157000C82F809125038C1771F0C09325030E941A
:10158000502660932603709327038093280390933B
:1015900029038C2FC7DCCF910895ADE0B0E0E3EDD7
:1015A000FAE00C94F72C488759876A877B878C87E9
:1015B0009D87911104D71F8286E0FE0138969E0117
:1015C0002F5F3F4FD90101900D928A95E1F78D81F0
:1015D00081110CC029813A814B815C816D817E81B2
:1015E0008F8138D62D96E2E00C94132DCE01019612
:1015F00011DF8111EFCFF6CFFC012481213019F4E6
:101600008081918101C40895CF93C82F811581F005
:101610008450813A78F48C2F0E948918811521F02A
:101620008C2F0E94CB1832D78C2F0E94C5182ED732
:10163000CF9108958C2F805E883048F481E0C1FD01
:1016400084E0C0FD880FC2FD82959AD6F0CF8C2F22
:10165000855A833030F48C2F8452990B0E942718BE
:10166000E7CFC85ACB3120F7EC2FF0E0EE0FFF1F89
:10167000E05CFE4F808191810E944E18D9CF811588
:1016800021F1982F9450913A18F40E94CB18FEC67D
:10169000982F905E983050F4982F81E091FD84E06F
:1016A00090FD880F92FD829571D6F1CF982F955AB3
:1016B000933020F480E090E00C942718885A8B3106
:1016C00020F480E090E00C944E1808951F93CF937F
:1016D000DF93182FEB0198DF209731F4812FCFDFB4
:1016E000DF91CF911F9108958FE99FE00197F1F766
:1016F00000C000002197F0CF60E570E0893311F061
:1017000060E070E0E3CF811511F03AD6BFC60895CE
:10171000811511F03BD6BAC60895A0E0B0E0E3E928
:10172000FBE00C94F12C6C01D62FC72FFC01158126
:10173000068102950F7019D6E82E8115E9F0E12E89
:101740001115D1F08C2F807F803461F08D2F805E59
:10175000883098F18C2F807E803221F4D23068F16D
:10176000011559F18091780482FF27C082E0AAD642
:10177000FCD591E08927E82E9C2F92959F70983098
:1017800009F4CAC068F59430D0F4923008F438C037
:101790008C2F8F70F82EC07FC03219F0F29480EF3A
:1017A000F822D13008F456C009F47EC0111509F4AE
:1017B00087C0011509F467C036C0E12CDDCF09F4FC
:1017C0008FC0E11409F4D8C0CCD580FDD5C0F60196
:1017D0001582C1D531D2C60183D1BDD53BD2CCC093
:1017E000993009F40BC19A5F9F70923050F7D23F45
:1017F00009F011C18C2F8F7111110BC11DD2B9C00D
:101800000C2F0F70C03110F00295007F111581F080
:10181000011549F08D2F805E883010F0D11105C080
:10182000802FAED533D68D2F21C0802FBAD5FACFD9
:101830008D2F25DF011509F4C4CF8D2F805E8830F0
:1018400010F0D11103C0802FA1D502C0802FAFD5D9
:101850001DD6B7CF8091780482FD11C0111541F0DB
:10186000F11419F08F2D8CD511D680E0CDDEA9CFE3
:1018700080E005DFF11409F4A4CF8F2DE5CF111519
:1018800051F0013018F48F2D3EDF9BCF09F099CF36
:101890008F2DA9D596CF011194CF8F2D39DF8F2DA4
:1018A000ADD58F2D92D58DCF111521F0063008F0D2
:1018B00088CFE9CF053008F084CF8F2D29DF81CF85
:1018C0000115D9F3D93349F48FEF97EE23E0815016
:1018D00090402040E1F700C000008D2FD0DE71CF96
:1018E0008C2F869586958370813060F009F069CFE2
:1018F0008D2F9C2F9370111102C080E090E00E9408
:101900004E185FCF8D2F9C2F9370111102C080E075
:1019100090E00E94271855CF8C2F8370C1F51111CC
:1019200028C04D2F429546954770440F440F2D2FE8
:101930002F7030E0042E02C0220F331F0A94E2F70A
:1019400080E090E0D4FF09C08FE090E002C0880FF3
:10195000991F4A95E2F780959095C695C695C370F4
:10196000822B932BC23079F0C33079F0C13049F02B
:101970003CD10E940B18D6DACDB7DEB7E8E00C9464
:101980000D2D2CD1F6CF38D1F4CF26D1F2CF1115B1
:1019900059F1C0FFEECF4D2F429546954770440F49
:1019A000440F2D2F2F7030E0042E02C0220F331F62
:1019B0000A94E2F780E090E0D4FF09C08FE090E065
:1019C00002C0880F991F4A95E2F780959095C695B9
:1019D000C695C370822B932BC23061F0C33061F087
:1019E000C13031F05CD1C5CF823008F4C2CFD3CF43
:1019F0004FD1BFCF5BD1BDCF0CD1BBCFCF701115B5
:101A000029F08C2F19D18D2F7EDEB3CF8D2F80DE64
:101A10008C2F20D1AECF58F4D03FB1F0D13F79F028
:101A20001115B9F1011591F18D2FEEDDA2CFD33F44
:101A3000B1F0D43FA9F78091780482FD18C08C2FB3
:101A40008F71111531F3DACE111539F0053008F028
:101A500090CF8C2F8F710ED18CCF0630F8CF11150F
:101A600021F08C2F8F71DFD084CFDAD082CF111587
:101A700029F063E08C2F8F710ED57BCF81E022D5CA
:101A8000023008F476CF82E01DD573CF8C2F8F7192
:101A9000B5CE011571F0D93349F48FEF97EE23E0FD
:101AA000815090402040E1F700C000008D2FE7DD1D
:101AB00060CF8C2F8F71ADCF0F931F93CF93DF9398
:101AC000EC01688179818D81A8D18C01F6D083D019
:101AD000B801CE0122DEDF91CF911F910F910895C1
:101AE000CF93DF93EC018C81811581F0CE01B5DCC1
:101AF00081110FC03AD4811549F08D81811531F0E3
:101B00008091780482FF02C082E0DCD4DF91CF9123
:101B10000895CE01D1DFCE018EDCF8CF80E090E0D9
:101B20000E94271880E090E00E944E1848D4AEC46E
:101B30000E94D118F3CF32D4FBCF282F92959F70FB
:101B4000963099F060F4925F9F70923030F4203FAD
:101B5000B1F038F481E0283E38F080E008959A5FD3
:101B6000F3CF81E0243FC9F7089591E0813F09F068
:101B700090E081E0283E08F080E0892B089581E024
:101B80000895FC012481211521F0808191813CD1AF
:101B9000D4CF80E00895A6E0B0E0E1EDFDE00C9444
:101BA000F72C2696E2E00C94132DA7E0B0E0EBEDC5
:101BB000FDE00C94F72C2796E2E00C94132D089589
:101BC000FECF0895FDCF0895FADFFCDF8093AD03CB
:101BD0009093AE0308950895F7CF08952091AD0333
:101BE0003091AE03822B932BEFCF2091AD03309138
:101BF000AE0382239323E8CF2091AD033091AE034F
:101C000082279327E1CFDBCF0895FDCF0895D7CF6B
:101C10000895FDDFFADF8093AB039093AC03089542
:101C200080E090E0F6CF21E030E002C0220F331FC9
:101C30008A95E2F7C901EDCF21E030E002C0220F22
:101C4000331F8A95E2F78091AB039091AC03822B0E
:101C5000932BDFCF21E030E002C0220F331F8A95A3
:101C6000E2F7209530958091AB039091AC038223ED
:101C70009323CFCF21E030E002C0220F331F8A959B
:101C8000E2F78091AB039091AC0382279327C1CFF9
:101C90002091AB033091AC03822B932BBACF2091D0
:101CA000AB033091AC0382239323B3CF2091AB03DA
:101CB0003091AC0382279327ACCF0895CF93C1E036
:101CC00061FDC4E060FDCC0F62FDC29593E07695A6
:101CD00067959A95E1F7660F771F660F771F460F96
:101CE000571FFA0140E050E090E06191DF019C0154
:101CF000042E02C0369527950A94E2F72695220B0A
:101D000026272C2326272E934F5F5F4F4430510503
:101D100061F7CF910895A82FA77023E09695879536
:101D20002A95E1F7880F991F880F991F680F791F6F
:101D3000FB0140E050E080E0219130E00A2E02C03B
:101D4000369527950A94E2F72170042E01C0220FE0
:101D50000A94EAF7822B4F5F5F4F4430510561F7D9
:101D60000895262F382F392B303150F430E1939FCE
:101D7000B0011124680F711D4BE253E0822F9ECFFA
:101D80000895292F282B203150F440E1949F900191
:101D900011246BE273E0820F932F911DBCCF80E082
:101DA0000895CF92DF92FF920F931F93CF93DF930B
:101DB0006C010091AB031091AC038091AD03909145
:101DC000AE03082B192BCFE0D0E081E090E00C2E81
:101DD00002C0880F991F0A94E2F780239123892B70
:101DE00061F4219790F7F12C8F2DDF91CF911F9106
:101DF0000F91FF90DF90CF900895FC2EB6018C2FAD
:101E0000B3D5019771F3F0CFCF93DF93EC01C9DF26
:101E1000BE01AAD5DF91CF9108951F93CF93DF9391
:101E2000EB0190912A03911531F0CB01EDDFDF91A9
:101E3000CF911F910895811551F0CB01B2DF182F7A
:101E4000682FCE018EDFBE01812F8ED5F0CFCB0162
:101E500098DF182FF8CF0F931F930091AF03809155
:101E6000B003801303C01F910F91089587E0089F6E
:101E7000F0011124EF54FC4F2081318142815381C4
:101E800064817581868191DE0F5F1F4F0770E7CFF8
:101E90002091E9033091EA034091EB035091EC0368
:101EA0006091ED037091EE038091EF037ECE8091FF
:101EB000EF03803170F48091EE03811551F0E091D1
:101EC000AF032091B0033091EA034091E9032E1350
:101ED00001C00895BF0187E0E89FF0011124DF01F0
:101EE000AF54BC4F14968C911497811549F11196FB
:101EF0008C911197831324C08C91841321C0159663
:101F00008C91159781111CC012968D919D91A09175
:101F1000EB03B091EC038A1B9B0B883C910580F48A
:101F20008091EF038F7080618093EF03E954FC4F41
:101F300080818F708061808389EE93E0D1DD8BCFCB
:101F40006F5F7F4FFB01E770C2CFE091AF039091CD
:101F5000B003E91302C080E008959F0157E0E59FB8
:101F6000F0011124EF54FC4F5181561306C05081EB
:101F7000581303C05581541305C02F5F3F4FF9011B
:101F8000E770E7CF81E008958F929F92AF92BF9262
:101F9000DF92EF92FF920F931F93CF93DF93CDB712
:101FA000DEB72D970FB6F894DEBF0FBECDBF8C0104
:101FB00086E0F801DE01189601900D928A95E1F70E
:101FC000F801F580848199EE892E93E0992E909105
:101FD000ED03911117C0811509F4EFC0F11409F454
:101FE0002EC1C801CEDD811509F429C187E0F801B1
:101FF000D40101900D928A95E1F7C401FDDA57DF13
:1020000047DFDBC0E080A280B380D090EE03209158
:10201000EB033091EC03A501421B530BD11409F4DF
:10202000CFC0483C510508F09EC0811509F4C5C0D9
:102030009091EA0391808091EF03803108F065C0B0
:10204000991226C09091E9039E1122C0F11057C049
:102050008F7080618093EF031BDF89EE93E040DD9A
:102060008091EF03F8018683F12C8F2D2D960FB60A
:10207000F894DEBF0FBECDBFDF91CF911F910F91BE
:10208000FF90EF90DF90BF90AF909F908F9008955A
:10209000F11035C040E0692D8E2D57DF40E0692DED
:1020A0008E2D53DFF82E8111DFCF88859985ACDE28
:1020B000292F22952F70903450F49F70223078F0A1
:1020C000911591F0F8019681903170F4CECF2A5F8E
:1020D0002F70223070F0C80103DDFD2CC6CF9115A2
:1020E00019F0811509F4C1CF805E883008F4BDCFA6
:1020F000F2CF803F08F4B9CF815F8330F7CF809172
:10210000EF0381608093EF03AFCF991207C09091E6
:10211000E9039E1103C0F11409F473C0C80131DD55
:10212000811509F48CC0F11409F489C08091EF0382
:10213000803280F02091E9033091EA0329833A83C9
:10214000AB82BC829091ED039D831E828F83CE0172
:102150000196C6DC87E0F801A9EEB3E001900D928C
:102160008A95E1F74CCF9091EF03903188F4488540
:1021700059856A857B858C859D850DDD89EE93E08B
:10218000AFDCF40187E011928A95E9F781DE6CCF2C
:10219000811599F02091EA0381812813BFCF8091A6
:1021A000E9038E11BBCFF110B9CF9683C80198DC3B
:1021B000F40187E011928A95E9F7FF24F39455CF53
:1021C000483C510508F03EC08115B9F3F114B9F14E
:1021D0009091EA038181981329C08091E9038E11BF
:1021E00025C08091EF0380FD18C08031B0F0868358
:1021F000807F803F39F08681982F907F905F8F702D
:10220000892B8683C8016CDC87E0F801A9EEB3E076
:1022100001900D928A95E1F7F3CE87E0F801A9EEDF
:10222000B3E001900D928A95E1F7C7CFC801A9DC10
:10223000811190CF8091EF0381608093EF03C801FB
:102240004FDCBBCF488559856A857B858C859D850C
:10225000A2DC97CFAEE0B0E0E0E3F1E10C94F62C25
:10226000288739874A875B876C877D878E87CE0171
:1022700008968ADE6C85811599F0611539F02885FC
:1022800039854A855B857D858E858FDC8091AF039E
:102290009091B00389133DC02E96E3E00C94122D6B
:1022A00087E09E01285F3F4FF90127503109D9018E
:1022B00001900D928A95E1F7611541F3A091B00369
:1022C0008A2F90E08395877090E0AC012091AF0356
:1022D0002417150691F097E09A9FD0011124AF546E
:1022E000BC4F9E012F5F3F4FF90101900D929A95CF
:1022F000E1F74093B003AFDDC9CF1DDC1092B0030E
:102300001092AF03E9EEF3E087E011928A95E9F7C6
:10231000BDCF17E0189FC00111248F549C4F34DEAD
:10232000811509F4B9CFE091AF031E9FF00111248C
:10233000EF54FC4F2081318142815381648175814A
:10234000868133DC8091AF039091B0030196877052
:102350008093AF039BCF8091F803869586958695F1
:1023600008958091F803877008959091F80397700D
:1023700081E0911101C080E00895809104040895E6
:1023800090910404982B9093040408958095982FBD
:102390008091040489238093040408951092040416
:1023A000089590910304982B9093030408958095C9
:1023B000982F809103048923809303040895109239
:1023C000030408950895FECF08959091F903292FED
:1023D000282329F0809589238093F903F4CF089569
:1023E0000895FECF08959091FA03292F28232817E6
:1023F00021F0982B9093FA03F4CF08959091FA036B
:10240000292F282329F0809589238093FA03E9CF87
:1024100008958091FA03811521F01092FA0380E06B
:10242000E0CF08950F931F93CF93DF938091000126
:10243000909101018C01C091040480910304C82B88
:102440008091FA03811521F0C82B4FD68111E1DF6D
:10245000F801C083C0910001D091010148E050E033
:1024600060EF73E0CE010E941E2D892B51F088E0B1
:10247000FE01A0EFB3E001900D928A95E1F7CE0145
:10248000D9D5DF91CF911F910F910895CBCF0895AA
:102490000895FECF08959091780492FF0EC0982F72
:1024A000990F990F990F962B9093F803C5DB8091A4
:1024B000F803869586958695ECCFBECB1092F803EF
:1024C00080E0E7CF9091F803809589238093F8030B
:1024D000282F277059F4891749F09091780492FFBA
:1024E00005C0869586958695B5DBE8CF08959091D1
:1024F000780492FB222720F9281749F080FB92F9F3
:102500009093780487E794E043D082E0DBCF08958E
:1025100080917804002482FF0394802DE8CF81E02D
:10252000E6CF80E0E4CF80E090E0BC01A8C380E08B
:1025300090E0BC019ED3F7CFA3E0B0E0E2EAF2E185
:102540000C94F72C4FD35AD31B82CE0103966DD334
:1025500081E090E08093AD031092AE0372D31982B4
:1025600084E18A83CE0101967DD3E1DF2396E2E008
:102570000C94132DE1CF089547C3089534C30895F3
:1025800049C3089558C308955CC308955FC308956F
:1025900069C308957AC30895A6E0B0E0E2EDF2E1E0
:1025A0000C94F52C0E9444268C0180910504909196
:1025B00006048017910779F019821A820E94442636
:1025C000BC0149815A8180E090E00E94CD0A0093CD
:1025D0000504109306042696E4E00C94112D0E9445
:1025E000502660930B0470930C0480930D04909319
:1025F0000E04609307047093080480930904909379
:102600000A04089508950895FDCF08950895FEDF02
:10261000FBCF0895FECF08950895FEDFFBCF8AEA31
:1026200095E14BD3F0DFF3CF81E0089581E0089589
:10263000FBCF0895089508950895FCDFFCDFFCCFDB
:102640009DDF811101C096DF8FE094E099DF87E77D
:1026500094E09CDF97DFC0DA8091AB039091AC03EC
:10266000D4CA0E943B260E94F708EADFD2D40E9417
:10267000AF0AD3CFA6E0B0E0E0E4F3E10C94EB2C9A
:10268000D5DF811108C088DFC5D40E94B50A26961F
:10269000EEE00C94072D0E94F40727E5822E24E03B
:1026A000922E740110E0F701C080D180812F0E942A
:1026B00066071F5F103109F452C022E0E20EF11CE0
:1026C000C816D90681F380910F0481FD0E949107FD
:1026D000AFDF682E10E0812F0E9466077C01F401B5
:1026E000A190B1904F018A159B0599F1A826BF24AE
:1026F00000E091E0C92ED12CC5018C219D21892BB0
:1027000001F177247394C7018C219D21892B09F451
:10271000712C611489F0602F812F0E94A6258111F0
:102720000BC009831A830E944426BC0149815A8147
:1027300081E0972D0E94CD0A472D602F812F0E94A6
:10274000BD250F5FCC0CDD1C0031B1F6F401F29217
:10275000E2921F5F103109F0BECF41DF95CFC8165E
:10276000D90609F0B0CF8FCF0F931F93CF93DF938C
:10277000FDD0EC01D23508F050C0D03508F0C8C00B
:10278000C03ED10530F5CD3CD10508F09DC0C83A1A
:10279000D10578F4C53AD10508F093C0C130D10510
:1027A000B1F1CE010497813A910588F1C0E0D0E003
:1027B0002EC0CE01885A91094B97C0F7C85AD0E075
:1027C000CC0FDD1FCA58DE4F0990D881C02DD464CC
:1027D0001EC0D034A8F4D03208F0ADC0C83ED10538
:1027E000B0F0CE0191509F3108F78D2F62D1082FA4
:1027F0008C2F90E0BBD0D02FDF71C82FD92B07C012
:102800008C2F90E0B3D0DF70C82FD92BD06ACE01C7
:10281000DF91CF911F910F910895C03882E5D807BD
:10282000B8F5C03682E5D80708F056C0C03482E556
:10283000D807C8F4C03282E5D80708F047C08C2F0B
:102840008695869520E2829FC0011124C37021E005
:1028500030E002C0220F331FCA95E2F7E901C82B0E
:10286000D92BDD68D4CF8C2F86958695877020E292
:10287000829FC0011124C37021E030E002C0220F0A
:10288000331FCA95E2F7E901C82BD92BDC68BFCF0B
:10289000C03C82E5D80750F48C2F8F71C03AD245E6
:1028A00080F5982F84EF906AEC01B1CFCE01805C67
:1028B0009245809708F07ACFDC2FDF71C0EFD06AA5
:1028C000A6CFA497D064A3CFD065A1CF8C2F8F7152
:1028D000D82FC1EFD06A9BCF8C2F869586958770B5
:1028E00020E2829FC0011124C37021E030E002C0C9
:1028F000220F331FCA95E2F7E901C82BD92BDA68FA
:1029000086CFD7D0982F80E09F71EC01D0627FCF27
:102910008C2F8F71CED053E0CC0FDD1F5A95E1F78D
:10292000DF70282F84FF04C090E1899F900111245B
:10293000C22FD0696CCF8D2F8F71BBD0082F8C2FF9
:1029400090E014D0302F3F71282F392B3062E901ED
:102950005ECF462F962F972B903118F4672F0C944B
:10296000C30980E090E00895F4DFFECE803E91053B
:10297000D1F1C8F48133910509F481C048F489325A
:10298000910509F471C08A32910509F47FC0089558
:1029900089339105E1F082389105C9F085339105BD
:1029A00009F45DC00895843E9105D1F148F4823E5A
:1029B000910531F1833E910541F181EE90E008955A
:1029C000863E9105C1F1873E9105F1F10895209170
:1029D0007704237009F064C02091780423FF14C0A9
:1029E00089E290E008952091770420FD45C0309160
:1029F000780430FF09C024FD24C083EE90E00895E0
:102A00002091770422FDF7CF08952091770422FDCD
:102A100044C03091780430FD43C024FFF5CF11C08D
:102A20002091780421FFF0CF8091770484FD09C0C4
:102A300087EE90E008952091770423FFE5CF24FFEF
:102A4000F7CF80E090E008952091770423FD2BC01C
:102A50003091780431FFE1CF84EE90E00895209129
:102A6000770425FFD1CFBCCF2091770425FD1EC070
:102A70002091780423FFC8CF89E390E00895209146
:102A8000770426FFC1CF8AE290E008952091770471
:102A900026FFBACF81E390E0089582EE90E008959A
:102AA00080EE90E0089586EE90E0089585E390E052
:102AB00008959091770492FF10C041E0282F24716F
:102AC000243009F040E031E0282F2871283009F047
:102AD00030E0431711F02CE0822793FF10C041E053
:102AE000282F2471243109F040E031E0282F28718B
:102AF000283109F030E0431711F02CE082273091A3
:102B0000780430FF10C051E0282F2171213009F0E6
:102B100050E041E0282F2871283009F040E0541798
:102B200011F029E0822731FF10C041E0282F2171E8
:102B3000213109F040E031E0282F2871283109F0D7
:102B400030E0431711F029E0822794FF02C083FD93
:102B5000877E089580E00895CF939C01205E3245E2
:102B6000C1E02032310538F4FB01C581C11103C039
:102B70008F710E94700A8C2FCF9108959C01FB01E8
:102B80008581811599F02B359CE7390769F02C3543
:102B90009CE7390721F02A353C4721F00895B8DC3D
:102BA00080E00895BCDCFCCFBCDCFACF81E0089566
:102BB0009C01FB018581811599F021309CE7390743
:102BC00061F023309CE7390739F021153C4749F47F
:102BD0000E948F0A80E00895CFDC0E94930AFACF0A
:102BE00081E00895089580E090E00E94332D9C01DB
:102BF00081E0233E3E4F09F080E0089563EE7EEFD2
:102C000080E090E00C94522D6FEF7FEF80E090E039
:102C10000C94522DCF93DF93EC0182E090E00E9460
:102C20002B2D8883DF91CF910895FC01608182E094
:102C300090E00C94382D83E090E00E942B2D90E0E2
:102C40000895682F83E090E00C94382DCF93DF93A4
:102C5000EC0184E090E00E94332D88839983DF911A
:102C6000CF910895FC016081718184E090E00C9423
:102C7000522DAB01BC018FE090E00C944A2DAB01CA
:102C8000BC0183E190E00C944A2D682F8EE090E027
:102C90000C94382DEFCC08950E94DE250E94D82791
:102CA000BEDC0E94F127DDDC0E94FA270E94FE278D
:102CB000F1DF0E941428C1DCF9CF8093E4019093E6
:102CC000E5010895CF93DF93EB0186319C47F9F43A
:102CD00054DB9D81911591F08A7A91E0811101C0B8
:102CE00090E090931004811539F085E34ED2CEDB4D
:102CF00080E0DF91CF91089589E2F8CF80911004B0
:102D0000811519F085E347D2F2CF89E2FCCF81E04B
:102D1000F0CFCF93DF93EC01FB018581811509F49E
:102D2000C8C09E0130572332310508F0A8C087E79C
:102D300094E02CDCFE01E150F047E232F10520F492
:102D4000E859F24D0C94E12C8091770481608093D6
:102D500077048FC08091780488608093780489C05C
:102D6000809177048260F3CF809177048460EFCF05
:102D7000809177048860EBCF809178048160EDCFFB
:102D8000809178048260E9CF809177048061DFCF01
:102D9000809177048062DBCF809177048064D7CF05
:102DA0000E949B0D809177048068D1CF8091770439
:102DB0008C60CDCF809178048360CFCF80917704F1
:102DC0008E7FC5CF80917804877FC7CF80917704AD
:102DD0008D7FBDCF809177048B7FB9CF80917704B1
:102DE000877FB5CF809178048E7FB7CF80917804AC
:102DF0008D7FB3CF809177048F7EA9CF80917704A8
:102E00008F7DA5CF809177048F7BA1CF0E949B0DF2
:102E1000809177048F779BCF80917704837F97CFC2
:102E2000809178048C7F99CF90917704892F8B7F44
:102E300092FF8460877F92FF886089CF80917804B9
:102E4000982F909590FB80F990FB81F986CF909117
:102E50007704892F8F7B96FF806479CF0E949B0D2A
:102E600090917704892F97FB87F9805870CF81E084
:102E700091DB87E794E08CDB0E949B0D80E0DF9183
:102E8000CF91089580E0F4CF90917704892F8F7EC1
:102E900094FF80615CCF90917704892F8E7F90FFA3
:102EA000816055CF90917804892F877F93FF886048
:102EB00054CF81E0E4CF0F931F93CF93DF93C42FC0
:102EC000D22FFC0185818115D1F0409313040E941B
:102ED000442680931104909312048C2F805E8830D6
:102EE00048F481E0C1FD84E0C0FD880FC2FD8295F9
:102EF0000E94830BDF91CF911F910F910895109144
:102F00001304141334C080911104909112040E9490
:102F1000D525883C910558F5CD2FC05E1D17C1F011
:102F2000812F805E883048F481E011FD84E010FD3F
:102F3000880F12FD82950E94880BC83048F481E00A
:102F4000D1FD84E0D0FD880FD2FD82950E94830BD5
:102F5000802F0E947C0B81E0D1FD84E0D0FD880FA2
:102F6000D2FD8295C83030F60E94880BC3CF8C2FDB
:102F7000805E883008F0BECF81E0C1FD84E0C0FDF6
:102F8000880FC2FD8295F0CF0F93FC01CB01E85171
:102F9000FC47E730F10588F5E657F24D0C94E12C3B
:102FA00006E221EE41EE6AE17CE785DF80E00F91E9
:102FB000089507E225EE45EE6BE17CE7F6CF06E2E9
:102FC00021EE40EE68E17CE7F0CF07E225EE44EE2B
:102FD00069E17CE7EACF06E221EE42EE6CE17CE7B4
:102FE000E4CF07E225EE46EE6DE17CE7DECF08E2B6
:102FF00021E045EE6EE17CE7D8CFFB0185818111B0
:103000001092130481E0D3CF809318049093190495
:10301000089508950895E0911804F09119043097E7
:1030200039F00190F081E02D309711F00995089565
:1030300080E00895E0911804F0911904309731F080
:103040000280F381E02D309709F009950895A3E0FF
:10305000B0E0EDE2F8E10C94F72C209116043091E9
:10306000170428173907B1F08093160490931704BA
:10307000E0911804F0911904309761F00084F18513
:10308000E02D309739F023E029838A839B83CE019A
:10309000019609952396E2E00C94132DA3E0B0E08D
:1030A000E4E5F8E10C94F72C209114043091150418
:1030B00028173907B1F08093140490931504E09118
:1030C0001804F0911904309761F00084F185E02D27
:1030D000309739F024E029838A839B83CE010196BF
:1030E00009952396E2E00C94132D40910001509134
:1030F00001019A012E5F3F4F485F5F4F80E0F90169
:1031000090812F5F3F4F91118F5F42175307B9F79F
:103110000895811591F02091000130910101F9018C
:103120003296285F3F4F9081981731F03196E21721
:10313000F307C9F780E0089581E008959C01FC0140
:10314000329680E09FEF4081461759F031969F3FBD
:1031500019F4411101C0982F8F5F8630A1F79F3F6E
:1031600009F40895290F311D97FD3A95F9016283FD
:103170000895FC01329608962191261302C0DF01C2
:103180001E92E817F907C1F70895682F8091000192
:1031900090910101D3CF682F80910001909101019E
:1031A000E8CFE0910001F0910101329686E01192A2
:1031B0008A95E9F708950895FECF08958F5F80936B
:1031C00005016091020170910301809104019091C9
:1031D0000501F2CF83E080930501609102017091B7
:1031E00003018091040190910501E6CFE7CF089596
:1031F00081E080930501609102017091030180914B
:10320000040190910501D8CFF3CF089591E0811189
:1032100001C090E09093040160910201709103015C
:103220008091040190910501C7CF80910401089518
:103230008093030160910201709103018091040168
:1032400090910501B9CF8091030108958093020107
:103250006091020170910301809104019091050138
:10326000ABCF8091020108950F931F93CF93DF930B
:10327000EC01DC01129688E0F80101900D928A952C
:10328000E1F728D06A877B87DF91CF911F910F915B
:103290000895089580E090E008958FEF9FEF0895DE
:1032A000862F58DC81E090E0089510921C04109263
:1032B0001D0488EE93E080931E0490931F041092E7
:1032C00020041092210486EB91E080931A049093DD
:1032D0001B0408950C945026089520EA3FE06115E0
:1032E000710509F40895C9010197F1F76150710959
:1032F000F6CF80912C040895A0E0B0E0E2E8F9E177
:103300000C94F22C7C01D62E611569F18C010A5ABD
:103310001F4FED01F801808191810097F1F0FC01D0
:103320000190F081E02D0084F185E02D09958D114B
:1033300014C0AB96CC0FDD1FCE0DDF1D88819981A7
:10334000FC010190F081E02D0480F581E02D0995CC
:10335000CDB7DEB7E7E00C940E2D0E5F1F4F219620
:10336000C031D105B9F680E0F3CFFC019C01255BAB
:103370003F4F61E0AC014E5F5F4F15866687178651
:10338000438754873596E217F307B9F7FC01158296
:103390000895CF93DF93EC0188EC91E088839983C3
:1033A000188681E089871A86CE0102968E839F83D4
:1033B0001A8288E08B838CE38C831D82CE01D5DF5B
:1033C000CA58DF4F188281E180932C04DF91CF919E
:1033D0000895FC0181E09585961729F08F5F359659
:1033E0008031C9F780E00895FF920F931F93CF9328
:1033F000DF93EC01062FF42E122F67FD4AC0283010
:1034000008F047C0411521F08D81873009F441C093
:1034100060E0CE01DEDF8115E1F0282F30E0011100
:1034200020C085E0829FF001839FF00D1124EC0FF6
:10343000FD1FF11499F081E480878D818F5F8D836A
:1034400085E0829FF001839FF00D1124EC0FFD1F9A
:103450008085CDB7DEB7E5E00C94102D81E0808744
:10346000EFCF0770802F880F880F880FF11421F09D
:1034700080641D811F5F1D831770887F812B95E0FD
:10348000929FF001939FF00D1124EC0FFD1F808798
:10349000E0CF80E0DECFCF93DF93EC01069661159D
:1034A00059F0CE0196DF811551F0269625E0829FD6
:1034B000C00DD11D1124CE01DF91CF91089580E080
:1034C00090E0FACFCF93C42FE6DF009769F0FC01BC
:1034D000208131812115310529F04381C90120E086
:1034E000421304C080E090E0CF910895FC01308148
:1034F0003C17D1F303962F5FF3CF0F931F93CF9316
:10350000DF93162F042FE901209779F0C4DFFC0127
:1035100086ED309729F01283C083D183038380E046
:10352000DF91CF911F910F91089588EDF9CF2E98DB
:1035300008950F931F93CF93DF93082F162FEA015F
:10354000F6DF802F82608EBD11110AC00DB407FE18
:10355000FDCF0E94DE08DF91CF911F910F9108955A
:103560000DB407FEFDCF89918EBD1150EDCFCF93E5
:10357000C82FDDDFCEBD0DB407FEFDCF1EBC0DB4E0
:1035800007FEFDCF0E94DE088EB5CF910895CF9340
:10359000DF93C82FD62FCBDF8C2F82608EBD0DB46A
:1035A00007FEFDCFDEBD0DB407FEFDCF0E94DE0895
:1035B000DF91CF910895A4E0B0E0E1EEFAE10C9440
:1035C000E72C6B837C834A0179016801FB01318020
:1035D000832D8150803408F093C07CDE68577C4E88
:1035E0008F4F9F4F2B013C01EB81FC81828160E872
:1035F00080FF60E488EECBDF1982E114F10409F466
:103600003FC0032D10E0E314F10408F487010A839E
:10361000A601602F80E18DDF602F88E3B8DFEB81AA
:10362000FC816081606280EFB2DF88ECA0DF87FF01
:10363000FCCF60E888ECABDF88EF99DF8F7089837F
:10364000A12CB12C212C8981811509F454C042DEB2
:10365000DC01CB0184199509A609B7090AF04BC012
:1036600089818630F1F08E30C1F0843049F48FEFDB
:10367000A81AB80A8114910411F1A814B904F9F434
:1036800088EF75DFEB81FC81928185FB90F9928355
:1036900089812496E2E10C94032D2394822D8330BA
:1036A000EECF88EF64DFEB81FC8192819E7F85FF06
:1036B0009160928360E890FF60E488EE68DF60E0EC
:1036C00088E365DFF601608180E161DF6A8188E37C
:1036D0005EDFEB81FC816081606280EF58DF88EC07
:1036E00046DF87FFFCCF60E888EC51DF88EF3FDFE3
:1036F0008F708983A8CFE01AF10AC00ED11E7DCF4A
:103700008AED8983C5CF8F929F92BF92CF92DF922D
:10371000EF92FF920F931F93CF93DF937C01D42FEF
:10372000B22E11E06C01C60ED11CC60ED11C86E56E
:10373000C80ED11CC701840F911D840F911D8A5A98
:103740009F4F4C01F60180819181FC010190F08135
:10375000E02D0280F381E02D202F4B2D6D2F099558
:10376000C82F803EA9F5D11126C061E088EE0FDF99
:1037700066E670E080E090E0B0DDF6018081918146
:10378000FC010190F081E02D0190F081E02D202FCF
:103790004B2D6D2F0995C82F8D30A1F51430E1F414
:1037A000D11133C061E088EEF2DE66E670E080E0C1
:1037B00090E093DD1AC0F40180819181FC010190B9
:1037C000F081E02D0284F385E02D6B2D0995D5CF96
:1037D0008D3049F4143049F064E670E080E090E008
:1037E0007CDD1F5FAFCF811541F28C2FDF91CF9130
:1037F0001F910F91FF90EF90DF90CF90BF909F901F
:103800008F900895811589F3CBCFED0EF11CED0E4D
:10381000F11CF701EA5AFF4F80819181FC01019070
:10382000F081E02D0284F385E02D6B2D0995DDCF2D
:10383000A0E0B0E0EEE1FCE10C94ED2C962E842E9D
:10384000590148DD68577C4E8F4F9F4F6B017C01BB
:1038500000E010E0E801892D8829982E3BDDDC018D
:10386000CB018C199D09AE09BF09D2F4692D80EFF7
:103870008EDE30DDDC01CB018C199D09AE09BF095C
:103880003AF488EC74DE87FFF4CF60E888EC7FDEE2
:1038900088EF6DDE8F70C82F843041F08E3079F064
:1038A0008C2FCDB7DEB7ECE00C94092D0F5F1F4FC6
:1038B000A114B10499F20A151B0581F6F1CFDF5F5F
:1038C000D330FBCFA4E0B0E0E8E6FCE10C94E72CB9
:1038D0001C016B837C8349835A8369014801F90188
:1038E000A080B180FB014180F90110821182FB01AF
:1038F000828160E281FF60E188EE49DE5A2C2981F5
:103900003A81EB81FC81408160E0C10191DF782E3A
:10391000863099F488EF2BDE91E021E084FD922738
:10392000892FEB81FC81928180FB91F9928360E287
:1039300091FF60E188EE2BDEE2CF81113AC088EC86
:1039400016DE82FF4BC080E312DE682EA816B1049B
:1039500008F4652CF601808191818501081B190B03
:1039600012F400E010E0E62CF12C601611060CF4C5
:103970008701702EDCDD88E08EBD0DB407FEFDCF23
:10398000C40171101BC00E94DE0864E088ECFFDDFA
:10399000F60180819181E80EF91EE082F1826414C3
:1039A000B8F488EFE4DDEB81FC81928184FB91F92E
:1039B0009283872D2496E2E10C94032D1EBC7A9409
:1039C0000DB407FEFDCFFC018EB58193CF01D9CF99
:1039D000EA14FB0430F7800E911E91CF80EF782E11
:1039E000E8CFA0E0B0E0E7EFFCE10C94EF2CEC01B5
:1039F000F62EE42E690158014EDD8C0186ED01158D
:103A00001105B9F1F80180819181892BD1F14E2DF9
:103A10006F2DCE0157DDF60180839183009799F1D8
:103A2000FC018281282F26952695803408F02FE00E
:103A300081E090E0A0E0B0E004C0880F991FAA1FC9
:103A4000BB1F2A95D2F70197F501808391836F2DD3
:103A500080EE9DDD88ED8BDDF8019481911571F08C
:103A6000CA58DF4F9881982B9260692F88ED8FDDBF
:103A700080E0CDB7DEB7EAE00C940B2D897F682F8C
:103A8000F5CF87EDF6CF8BEDF4CFA0E1B0E0EBE41E
:103A9000FDE10C94EA2C3C01542ED22EF02E1F8610
:103AA000188A1D861E86CE010D968C0102969C01F9
:103AB000C30197DF81116DC0D982FA82EB82CC827B
:103AC000AD82BE828F829886AE014F5F5F4F68E005
:103AD00080E22FDDED84FE849701452D60E1C30176
:103AE000A7DE811156C08CA19DA1892B09F455C078
:103AF000AF84B888F5018281D7FE3AC082608283A4
:103B00006401C114D10411F460EA3FC08AA19BA1F1
:103B10008B879C870CA11DA1CE010B969C01A70150
:103B2000B501C301CFDE811134C00B851C858EA188
:103B30009FA10097A9F0FC010190F081E02D019078
:103B4000F081E02DC4018C199D0989879A87CE01E7
:103B500009969C014CA15DA1B8018EA19FA1099578
:103B60008AA19BA10817190778F2C01AD10AC9CFF8
:103B7000816082830CA11DA12AA13BA1A701B501EF
:103B8000C30119DD811105C060E89701452DC3010E
:103B90004FDE6096EFE00C94062DD7FEF5CFB4CF44
:103BA0008F929F92AF92BF92CF92EF920F931F93FB
:103BB0001F921F921F930F933F932F934901A12CA4
:103BC000B12CCC24C394E12C06E020E85EDF0F90FA
:103BD0000F900F900F900F900F901F910F91EF90FB
:103BE000CF90BF90AF909F908F9008958F929F92AB
:103BF000AF92BF92CF92EF92FF920F931F921F92BC
:103C0000FF92EF923F932F934901A12CB12C22E018
:103C1000C22EE02E06E020E838DF0F900F900F90C4
:103C20000F900F900F900F91FF90EF90CF90BF905B
:103C3000AF909F908F900895A0E4B0E0E2E2FEE1A3
:103C40000C94E92C3C01D62E542E422EC02E5E013F
:103C50008FEFA81AB80A7501022F29E030E0C301DE
:103C6000C5DF81111AC08B809C801F93CF92BF92B9
:103C7000AF921F9280E48F93A12CB12C82E0C82ECA
:103C8000E42C06E020E8452D6D2DC301FEDE0F90EB
:103C90000F900F900F900F900F90C05CDF4FE0E1FE
:103CA0000C94052D8F929F92AF92BF92CF92EF927C
:103CB0000F931F921F921F921F921F921F92812C8F
:103CC000912C5401C12CE22E05E020E0DEDE082F0D
:103CD000C4016CE271E001DB0F900F900F900F9028
:103CE0000F900F90802F0F91EF90CF90BF90AF90DB
:103CF0009F908F9008958F929F92AF92BF92CF9294
:103D0000EF920F931F921F921F921F921F921F926A
:103D1000812C912C5401C12CE22E09E020E0B5DE6B
:103D20000F900F900F900F900F900F900F91EF90BA
:103D3000CF90BF90AF909F908F900895A4E0B0E097
:103D4000E4EAFEE10C94EF2C7C01690158011B822E
:103D50001C8219821A828E010F5F1F4FCE010396BB
:103D60009C01C7013EDE811108C049815A816B81E7
:103D70007C8185019601C701A5DD2496EAE00C94BB
:103D80000B2DEF92FF920F931F93CF93DF938C0134
:103D90006115A1F185E0689FE0011124F801EC0FA5
:103DA000FD1F808586FF20C0EE24E3948770F82EE7
:103DB0006E2D70E085E0869FF001879FF00D112445
:103DC000E00FF11F80858695869586958770F81699
:103DD000D1F06F5F7F4F603169F7F80185818F11F6
:103DE00003C0FA94F801F582C00FD11F188681E054
:103DF00089871A860E5F1F4F0E831F83CDB7DEB7EC
:103E0000E6E00C940F2DE62EC801BBDFD1CFCF9397
:103E1000DF93EC01613421F4A8DADF91CF910895AA
:103E2000D8DA682FCE01ADDFF8CF0F931F93CF9371
:103E3000DF93EC01122F8E819F81892B01F12A875C
:103E4000242F40E0CE01D0DA082F8115D1F0682F61
:103E5000CE0121DB0097B9F0FC011483202F40E054
:103E600060E0CE011FDF182F811519F0602FCE0101
:103E7000CEDF812FDF91CF911F910F91089517ED24
:103E8000F8CF14EDF6CF16EDF4CFA9E1B0E0EBE4F6
:103E9000FFE10C94E72C7C016E8B4F8B222E1B8A4A
:103EA00088E08C8B8CE38D8BF701C680D780CE01A8
:103EB00043968683978322878E010F5F1F4F22E1EF
:103EC00030E040E060E0C7016BDE182FF701C682EA
:103ED000D782811145C049845A848B849C848D810A
:103EE000888F8E81898F670186E5C80ED11C3601C7
:103EF000312CF301819191913F01009709F442C067
:103F0000FC010190F081E02D0084F185E02D099500
:103F1000811138C0F301929182915F01FC010190FF
:103F2000F081E02D0088F189E02D698D09958115DA
:103F300049F1F50180819181FC010190F081E02D32
:103F40000484F585E02DA401B2010995811561F085
:103F5000022D2F894E89632DC701D5DB813D91F05C
:103F60006996E2E10C94032DF50180819181FC01B9
:103F70000190F081E02D0684F785E02D688D09958C
:103F80008111E6CF832D8F5F382E803109F0B1CFBC
:103F9000F601819191916F01009749F41F5F1031F3
:103FA000B9F7222D4F896E89C7013FDFD9CFFC01B8
:103FB0000190F081E02D0084F185E02D09958111BB
:103FC000EDCFF601929182915F01FC010190F081A9
:103FD000E02D0088F189E02D698D099581110CC0D3
:103FE000022D2F894E89612FC7018DDB982F977F76
:103FF000913D09F0B5CFD2CFF50180819181FC01CF
:104000000190F081E02D0484F585E02DA401B2013A
:1040100009958111C3CFF50180819181FC01019047
:10402000F081E02D0684F785E02D688D09958115D6
:10403000B9F2B4CFAF92BF92CF92DF92FF920F93BB
:104040001F93CF93DF938C011D9919C088EC8FDAF1
:10405000682F607285FF11C088EF89DA807C803814
:10406000E9F040F4811125C061ED88ED90DA1092FD
:10407000E60102C0803C31F160E288EC88DA809190
:10408000E601823009F45BC0F8F4811154C08091DC
:104090002C04807F8031E1F081E14EC088ED67DA49
:1040A00081FD0BC069EC88ED72DA82E08093E60155
:1040B000E3CF88ED5CDA81FDF5CF6BEC88ED67DA54
:1040C00083E0F4CF81E0F2CFFF24F3948330C1F199
:1040D000F12CE801CA5ADF4F680186E7C80ED11CEF
:1040E0005E01F501819191915F01009741F0FC0122
:1040F0000190F081E02D0680F781E02D0995AC1448
:10410000BD0479F780912C04803409F47AC080F5DD
:10411000803209F460C0803309F46EC0813109F443
:1041200045C0DF91CF911F910F91FF90DF90CF900D
:10413000BF90AF90089583E180932C04C9CFF12CF8
:1041400080912C04807F803121F6C4D8DC01CB0122
:1041500088539F4FAF4FBF4F8093280490932904FB
:10416000A0932A04B0932B0480E280932C04B1CF57
:10417000813509F452C0803809F463C0803589F66E
:1041800088ECF5D986FFCDCF81E580932C04A2D8A9
:10419000DC01CB014496A11DB11D809328049093AE
:1041A0002904A0932A04B0932B04BBCFF6011082FC
:1041B00089919991009741F0FC010190F081E02DE7
:1041C0000480F581E02D0995CC15DD0589F782E1A4
:1041D00080932C04A6CF7ED8C0912804D0912904C6
:1041E000E0912A04F0912B04DC01CB018C1B9D0B88
:1041F000AE0BBF0B0AF495CF61E088EEC8D980E41E
:10420000E7CF88EEB4D980FD8CCF88EDB0D9886037
:10421000682F88EDBCD980E5DBCF5CD8C09128043D
:10422000D0912904E0912A04F0912B04DC01CB0108
:104230008C1B9D0BAE0BBF0B0AF473CF80E88093F1
:104240002C042F2D40E060E0C8011FDE811529F00D
:10425000823D09F466CF80EABBCF80E9B9CF8F9267
:104260009F92AF92BF92CF92EF920F93CF93DF9333
:10427000CDB7DEB7C054D1090FB6F894DEBF0FBE7C
:10428000CDBFFC01848195815F934F939E012F5F89
:104290003F4F3F932F931F9220E42F9320E8822ECD
:1042A000912C5B0132E2C32EE12C06E021E840E0D4
:1042B0006681EBDB0F900F900F900F900F900F9097
:1042C000C05CDF4F0FB6F894DEBF0FBECDBFDF91ED
:1042D000CF910F91EF90CF90BF90AF909F908F9024
:1042E00008958F929F92AF92BF92CF92DF92EF92FA
:1042F000FF920F93FC01A42EB12C848195811F9213
:104300001F92DF92CF92FF92EF924701C22EE02ED2
:1043100009E021E2462F6681B8DB0F900F900F90E5
:104320000F900F900F900F91FF90EF90DF90CF9034
:10433000BF90AF909F908F9008958F929F92AF9271
:10434000BF92CF92EF920F93FC01A62EB12C8481E5
:1043500095811F921F921F921F921F921F92812C74
:10436000912CC22EE42E0AE021E240E066818DDB32
:104370000F900F900F900F900F900F900F91EF9064
:10438000CF90BF90AF909F908F9008958F929F9203
:10439000AF92BF92CF92EF920F93FC01A62EB12C59
:1043A000848195811F921F921F921F921F921F92CC
:1043B000812C912CC12CE42E0BE021E240E066819F
:1043C00064DB0F900F900F900F900F900F900F9154
:1043D000EF90CF90BF90AF909F908F90089581E025
:1043E0000895FC018285089581E0693009F080E03C
:1043F0000895CF93DF93EC018A819B81FC010190AA
:10440000F081E02D0480F581E02D6A8509958A858B
:10441000813439F4EA81FB81EA58FF4F808184605E
:1044200080831A861B861C861D861E861F86188A18
:1044300080E0DF91CF9108958F929F92AF92BF92CB
:10444000CF92EF920F93FC01A42EB22E8281938122
:104450001F921F921F921F921F921F92812C912CCC
:10446000C12CE62E03E023E240E062850EDB0F90D4
:104470000F900F900F900F900F900F91EF90CF90A3
:10448000BF90AF909F908F900895A8E3B0E0EBE4C9
:10449000F2E20C94E72C3C01362E242E122FFC0164
:1044A00082858111F0C0A280B380F5010190F08176
:1044B000E02D0190F081E02D60E0C50109957C01BF
:1044C000009709F4E2C0FC0180809180811491047E
:1044D00009F4DDC0630184E0C80ED11CC082D18222
:1044E00014832E018FEF481A580A820128E030E029
:1044F00040E060E0F3018281938152DB182FF701E5
:104500001482811105C08D81893049F011ED02C0FE
:1045100080829182812FE896E2E10C94032D09813B
:10452000F5010190F081E02D0280F381E02D222D34
:1045300041E0632DC5010995F301828714ED8115D2
:1045400049F398859583282F40E060E0828193812C
:10455000A9DB182FF3016285F70180829182811512
:1045600061F0F5010190F081E02D0480F581E02DEE
:10457000C5010995F3011286CDCF01116CC09601DA
:1045800042E0F3016285828193810E947D1A182F97
:104590008111C0CFF301828193811F921F925F929C
:1045A0004F921F9228E02F93912C822EA12CB12C98
:1045B00039E2C32EE12C06E020EA40E0628565DAAC
:1045C000182F0F900F900F900F900F900F90811158
:1045D000A1CF8B81F3018387720100E0940140E059
:1045E00062858281938102DB182F811193CF2B8109
:1045F0003C8140E0F301628582819381F7DA182FD4
:10460000811188CF298130E0CE0181967C0140E084
:10461000F301628582819381E9DA182F81117ACFC3
:104620002E8140E0F30162858281938164DB182F43
:10463000811170CF01E0F30183858017D8F40280E7
:10464000F381E02DEA58FF4F80818460808381E010
:10465000F301808B5FCF013208F000E2202F30E0C1
:10466000820140E0F301828193819ADA182F81114F
:1046700051CF85CF20E0402F68E0C301DDDE802FE1
:104680008F5F082FD8CF19ED45CF16ED43CF17ED2B
:1046900041CF8F929F92AF92BF92CF92EF920F93A2
:1046A000FC01A42EB22E828193811F921F921F9231
:1046B0001F921F921F92812C912CC12CE62E01E09B
:1046C00023E240E06285E1D90F900F900F900F90A8
:1046D0000F900F900F91EF90CF90BF90AF909F9061
:1046E0008F9008958F929F92AF92BF92CF92EF9248
:1046F0000F93FC01A62EB12C828193811F921F92F1
:104700003F932F935F934F934A01C12CE12C00E01C
:1047100023EA40E06285B9D90F900F900F900F9077
:104720000F900F900F91EF90CF90BF90AF909F9010
:104730008F900895A4E0B0E0E0EAF3E20C94F22C4C
:104740008C01D62E19821A821B821C8220E0462FF1
:1047500061E19FDF20E04D2D60E1C8019ADF20E09C
:104760004D2D64E0C80168DE83E0E82EF12CCE0117
:1047700001969C0144E050E06D2DC801B3DF81112A
:1047800013C089819A81AB81BC819D7F50979140F4
:10479000834051F064E670E080E090E00E946D1983
:1047A00081E0E81AF10819F720E04D2D64E1C80115
:1047B00070DF20E04D2D60E1C8016BDF64E170E047
:1047C00080E090E00E946D192496E7E00C940E2D95
:1047D000FC0182ED91E08083918362837383148274
:1047E00088E085839CE3968391E09783808784E0CB
:1047F0008187128613861486158616861786108A78
:1048000061157105C1F0DB01AA5ABF4F80E090E04D
:104810002D913D911297232B49F48B96880F991F68
:10482000860F971FDC01ED93FD9308951296019674
:104830008031910569F70895EF92FF921F93CF930E
:10484000DF93EC01162F7A01FA0180819181A28118
:10485000B381813023E0920721E0A207B10581F105
:1048600068F4811521E09207A907B10509F445C054
:1048700011979140814021F180E039C09D7F509790
:1048800091408340C9F720E0462F64E1CE0101DF6B
:1048900020E0412F60E1CE01FCDE64E170E080E0C9
:1048A00090E00E946D196A85F7012181269521709B
:1048B0006770412F8A819B81E8DA10922D04DCCF4A
:1048C00080912D048111D8CF20E0412F61E1CE01EC
:1048D000E0DE20E0412F60E1CE01DBDE20E0412F71
:1048E00064E0CE01A9DD81E080932D0481EBDF91AE
:1048F000CF911F91FF90EF90089520E0462F61E146
:10490000CE01C7DE20E0412F60E1CE01C2DE109271
:104910002D046A85660F660F660F6873812F877096
:10492000682B8A819B810E947C19A6CFAEE0B0E003
:10493000ECE9F4E20C94F22C7C0181E08D871E8678
:104940008E010F5F1F4FCE010D969C0141E0F701D4
:10495000628582819381F2D9D82E811124C002E030
:1049600011E089818023B1F019861A861B861C8686
:10497000CE0109969C0144E050E0612FC701B2DEF0
:10498000811108C0CE010996AC01612FC70154DF27
:10499000813B49F0000F1F5F183019F711E0F70154
:1049A0008385811728F48D2D2E96E7E00C940E2D2B
:1049B00019861A861B861C86CE0109969C0144E046
:1049C00050E0612FC7018EDE811114C089859A8560
:1049D000877091708130914069F48B859C858160EE
:1049E0008B879C87CE010996AC01612FC70124DF1C
:1049F000813BC9F21F5FD3CF1F93CF93DF93EC01AD
:104A00008889811106C010E0812FDF91CF911F911D
:104A100008950E946A192C853D854E855F85DC01CD
:104A2000CB01821B930BA40BB50B6AF3CE017EDF87
:104A3000182F0E946A19DC01CB018C599F4FAF4F90
:104A4000BF4F8C879D87AE87BF87DECFCF93DF9325
:104A5000FC01DA0180819181892B01F580E0DF91F1
:104A6000CF910895EB0128813981E90148812381A3
:104A7000281B330B80819181820F931FEC014883A7
:104A80008281815082838D919D9101979E938E9317
:104A9000EB018881998101968883998382818115B0
:104AA00031F02D913D911297232BE1F6D7CF8381E1
:104AB000828381E0D4CFA0E0B0E0E0E6F5E291C7E8
:104AC0006C01460F571F7A018D016E157F0529F481
:104AD000C801CDB7DEB7E8E0A0C7EB01F601019051
:104AE000F081E02D0190F081E02D6991C6010995DA
:104AF000080F191FBE01E9CF08950895FECF08954C
:104B000008950895F9CF08950F931F93CF93DF93DE
:104B1000F7DF0E94F407F5DF0EE214E0C0E0D0E01A
:104B20008C2F0E9466079C01F801819331938F01BD
:104B300091E0232B09F490E0D92BCF5FC03181F7AE
:104B40008D2FDF91CF911F910F910895E82FF0E005
:104B5000EE0FFF1FE25DFB4F81E090E002C0880F87
:104B6000991F6A95E2F7BC018081918168237923BE
:104B700081E0672B09F480E00895411115C0E82F0A
:104B8000F0E0EE0FFF1FE25DFB4F81E090E002C01E
:104B9000880F991F6A95E2F7809590952081318161
:104BA00082239323808391830895CF93DF93EC0135
:104BB0006BD08C1B9D0BDF91CF91089585B78068DA
:104BC00085BF85B7806885BF08951F921FB61F9265
:104BD00011248F939F93AF93BF9380914E048111C3
:104BE00013C08091790490917A04A0917B04B091D4
:104BF0007C044196A11DB11D8093790490937A04A1
:104C0000A0937B04B0937C04BF91AF919F918F914F
:104C10001F901FBE1F90189580918104843031F140
:104C20000E94970A10924E0488E190E020E40FB6AB
:104C3000F894A895809360000FBE2093600083B71E
:104C4000817F846083BF83B7816083BF78948895B8
:104C500083B78E7F83BF0FB6F894A89580916000CC
:104C6000886180936000109260000FBE08950E94DA
:104C70009B0D0C949B0A82E084BD93E095BD9AEF56
:104C800097BD80936E0008952FB7F89480917904B2
:104C900090917A04A0917B04B0917C042FBF089579
:104CA0002FB7F8946091790470917A0480917B0415
:104CB00090917C042FBF089578941F921FB61F9285
:104CC00011248F939F93AF93BF9380917904909118
:104CD0007A04A0917B04B0917C040196A11DB11DC2
:104CE0008093790490937A04A0937B04B0937C041E
:104CF000BF91AF919F918F911F901FBE1F901895EC
:104D000081E08093E00080E28093D8001092C90097
:104D10008FE19EE40197F1F700C00000A7E0B0EB3F
:104D2000CD0180938A0490938B04A0938C04B0935C
:104D30008D0488E19CE00FB6F894A89580936000FC
:104D40000FBE90936000FFCF88E19CE00FB6F8940F
:104D5000A895809360000FBE90936000FFCF0895E8
:104D600008959B01BA01909181049430D9F48F7019
:104D70008093E9009FEF8091E80085FD06C085EDF6
:104D80008A95F1F700009150B1F78091E80085FF16
:104D900009C040E050E0C901B9D18091E8008E77A8
:104DA0008093E800089543E050E0BC0182E0D9CF51
:104DB000CF93DF93EC010E94151948E050E0BE014B
:104DC00081E0CFDF88E0FE01AFE4B4E001900D9216
:104DD0008A95E1F7DF91CF91089580918004811148
:104DE00007C022D372D38091E20084608093E200F6
:104DF00008951092800408950E94F81881E00C94A0
:104E0000061960917D0481E0611101C080E00C947D
:104E1000EA189091810481E0943009F080E060917B
:104E20007D040C94F61842E061EC81E079D242E214
:104E300061EC82E075D29091810481E0943009F0B8
:104E400080E060917D040C94DE18809183048930A9
:104E500081F148F4823009F49AC0833009F458C0D3
:104E6000813041F008958A3009F483C08B3009F411
:104E70006AC0089580918204813A09F048C0809107
:104E8000E800877F8093E8008091860490918704F2
:104E9000892B59F060E080E090E070E084D180914F
:104EA000E8008B778093E800089568E08FE494E051
:104EB000F4CF80918204813251F5809186049091E3
:104EC0008704029720F58091E800877F8093E800AF
:104ED0008091E80082FF17C02091F3008091F200DA
:104EE000922F029731F48091F100813011F08630D9
:104EF00021F48091F1000E9418198091E8008B77CD
:104F00008093E80041C2809181048111E1CF08952E
:104F100080918204813AD9F7809186049091870428
:104F2000892BA9F78091E800877F8093E800809122
:104F3000E80080FFFCCF0E9415198093F10080915A
:104F4000E8008E77DDCF80918204813201F7809175
:104F5000860490918704892BD1F68091E800877FA1
:104F60008093E80011D2809184040E9406190C9469
:104F70009B0D80918204813251F68091E800877FF9
:104F80008093E80001D2809185040C9426198091C9
:104F90008204813A09F0BBCF8091E800877F80933B
:104FA000E8008091E80080FFFCCF0E943119C5CF56
:104FB00084B7877F84BF0FB6F894A895809160006E
:104FC000886180936000109260000FBE80E890E0DE
:104FD0000FB6F89480936100909361000FBE0C941B
:104FE000041922D272D2E2EEF0E0808184608083E4
:104FF0007894CEC486E091E00C94041880918104EA
:10500000853029F480918104853011F030CE0895E7
:1050100003DE7ADD8115B1F380917F04811591F370
:105020005FD00E949B0DEECF08959A0140918804B5
:105030005091890400C0492F50E043305105C9F018
:1050400070F441305105E9F14230510571F48BE3C0
:1050500090E046EE56E0F9014083518308954132D5
:105060005105E9F04232510519F180E090E040E04D
:10507000F2CF482F50E0813061F04230510561F0AD
:10508000E2EEF6E04115510581F7849190E0AF0121
:10509000E2CFE8EDF6E0F9CFECEAF6E0F6CF6130EA
:1050A0007105A0F011F789E090E041E157E0D3CF1E
:1050B0006130710580F0C9F682E390E043E357E088
:1050C000CACF82E190E041E257E0C5CF89E090E0AD
:1050D00048EF56E0C0CF84E490E045E657E0BBCF10
:1050E00080E189BD82E189BD09B400FEFDCF8091D8
:1050F000D8008F7D8093D8008091E00082608093FB
:10510000E0008091E00081FDFCCF0895AF92BF9256
:10511000CF92DF92FF920F931F93CF93DF936C0197
:10512000EB018A0150D1F82E811123C00115110520
:1051300039F0F80180819181C81BD90BC80ED91EA6
:10514000A12CB12C2097A9F08091E80085FD21C009
:105150008091E8008E778093E80001151105A1F099
:10516000F801808191818A0D9B1D8083918385E068
:10517000F82E8F2DDF91CF911F910F91FF90DF902F
:10518000CF90BF90AF9008951ED18115E9F2F82E0F
:10519000F0CFF60181916F018093F10021978FEF9D
:1051A000A81AB80ACFCFFC01209188043091890455
:1051B0002617370720F06115710569F09B0190E013
:1051C0002115310571F491110CC08091E80082FF26
:1051D00038C080E008959091E8009E779093E800B1
:1051E000EDCF809181048115C1F18530C1F18091AD
:1051F000E80083FD30C08091E80082FDE6CF809119
:10520000E80080FFDDCF8091F3004091F200582F3D
:105210002115310519F04830510558F091E048301A
:10522000510509F090E04091E8004E774093E80086
:10523000C7CF81918093F100215031094F5F5F4FBB
:10524000E7CF80918104811541F0853041F0809154
:10525000E80083FFBACF81E0089582E0089583E0FB
:105260000895FC012091880430918904261737079E
:1052700020F06115710569F09B0190E02115310561
:1052800071F491110CC08091E80082FF39C080E078
:1052900008958091E8008E778093E800EDCF8091AB
:1052A00081048115C9F18530C9F18091E80083FD41
:1052B00031C08091E80082FDE6CF8091E80080FF58
:1052C000DDCF8091F3004091F200582F2115310578
:1052D00019F04830510558F091E04830510509F077
:1052E00090E08091E8008E778093E800C7CF8491AA
:1052F0008093F1003196215031094F5F5F4FE6CF27
:1053000080918104811541F0853041F08091E80061
:1053100083FFB9CF81E0089582E0089583E0089586
:10532000982F973028F08F708093E90081E00895DE
:105330009093E900242F762F50E0981731F0709168
:10534000EC002091ED005091F00021FD02C09F5F24
:10535000E8CF3091EB003E7F3093EB003091ED00D1
:105360003D7F3093ED003091EB0031603093EB00E6
:105370007093EC002093ED005093F0002091EE002C
:1053800027FDE5CF80E008958091820487FF13C058
:105390008091E80082FF06C08091E8008B778093BF
:1053A000E8000895809181048111F2CF08958091E1
:1053B00081048115D9F38091E80080FFF8CF8091B6
:1053C000E8008E77ECCF2091E4003091E50095E67F
:1053D000A9012091EC00822F817020FF06C08091EE
:1053E000E80080FF06C080E008952091E80022FDDB
:1053F0001AC080918104811589F0853089F08091EF
:10540000EB0085FD0FC02091E4003091E5004217CC
:105410005307F9F29150E1F684E0089582E008958F
:1054200083E0089581E008955FD066D0E0EEF0E07B
:10543000808181608083E8ED80818F77808319BCD3
:10544000A7EDB0E08C918E7F8C9380818F7E8083DE
:10545000109280040895CF93DF9346D04DD0C8EDCD
:10546000D0E088818F77888388818068888388816D
:105470008F7D888319BC1092810410927D04109254
:105480007F0410927E04E0EEF0E080818B7F8083C9
:1054900088818160888342E060E080E041DFE1EE66
:1054A000F0E080818E7F8083E2EE80818160808366
:1054B000808188608083E0EE80818E7F8083888118
:1054C00080618883DF91CF910895E8EDF0E08081DD
:1054D0008F7E8083E7ED80818160808384E082BF5E
:1054E00081E080938004B7CFE8EDF0E080818E7F8B
:1054F00080831092E20008951092DA001092E10089
:1055000008951F920F920FB60F9211242F933F937D
:105510004F935F936F937F938F939F93AF93BF93BB
:10552000EF93FF938091E10082FF0AC08091E20037
:1055300082FF06C08091E1008B7F8093E10027D23B
:105540008091DA0080FF18C08091D80080FF14C0DD
:105550008091DA008E7F8093DA008091D90080FFFD
:105560008FC080E189BD82E189BD09B400FEFDCF15
:1055700081E08093810431DC8091E10080FF18C0DC
:105580008091E20080FF14C08091E2008E7F8093C2
:10559000E2008091E20080618093E2008091D80077
:1055A00080628093D80019BC85E08093810429DC57
:1055B0008091E10084FF28C08091E20084FF24C034
:1055C00080E189BD82E189BD09B400FEFDCF8091F3
:1055D000D8008F7D8093D8008091E1008F7E8093EA
:1055E000E1008091E2008F7E8093E2008091E200F2
:1055F00081608093E20080917D04811509F445C0AB
:1056000084E08093810405DC8091E10083FF27C062
:105610008091E20083FF23C08091E100877F809327
:10562000E10082E08093810410927D048091E1008A
:105630008E7F8093E1008091E2008E7F8093E20074
:105640008091E20080618093E20042E060E080E0CF
:1056500067DE8091F00088608093F000CDDBFF91E1
:10566000EF91BF91AF919F918F917F916F915F91DA
:105670004F913F912F910F900FBE0F901F90189553
:1056800019BC10928104B5DB77CF8091E30087FFCE
:1056900002C083E0B6CF81E0B4CF1F920F920FB665
:1056A0000F9211241F932F933F934F935F936F9308
:1056B0007F938F939F93AF93BF93CF93DF93EF939A
:1056C000FF93E9EEF0E080811091EC008F7010FB09
:1056D000112717F9182B1082C0EFD0E08881877F3F
:1056E000888378941CD0E9EEF0E01082888188608D
:1056F00088831F701083FF91EF91DF91CF91BF914D
:10570000AF919F918F917F916F915F914F913F9159
:105710002F911F910F900FBE0F901F901895AAE226
:10572000B0E0E4E9FBE262C182E894E0FC010196AA
:105730002091F100208324E08A389207B9F785DBB5
:105740008091E80083FF37C08091820490918304A8
:105750009A3088F5E92FF0E0EF56F24D32C18038EB
:1057600089F0823841F5809186048F70873018F572
:105770008093E9008091EB0085FB882780F91092E7
:10578000E90006C080917F04880F90917E04892BE8
:105790009091E800977F9093E8008093F100109239
:1057A000F1008091E8008E7722C0811115C08091B0
:1057B0008404813001F18091E80083FF0AC0809168
:1057C000E800877F8093E8008091EB0080628093FF
:1057D000EB00AA96E3E026C1823069F78091840449
:1057E000811579F01092E9008091E800877F80931D
:1057F000E800CADDE0CF933009F080E080937F04B9
:10580000F1CF809186048F70282F2150263098F692
:105810008093E9002091EB0020FFE4CF933031F436
:105820008091EB0080628093EB00DCCF9091EB00E5
:1058300090619093EB0021E001C0220F8A95EAF776
:105840002093EA001092EA008091EB008860EBCF91
:105850008111B1CF809184048F77182F8091E3005C
:105860008078812B8093E3008091E800877F80938C
:10587000E8008ADD8091E80080FFFCCF8091E300A2
:1058800080688093E30083E0111101C082E080937F
:10589000810491CF8058823008F08DCF80918404AC
:1058A000909185048C3D23E0920789F583E08A83FB
:1058B0008AE289834FB7F894DE01139620E03EE038
:1058C00051E2E32FF0E050935700849120FF03C092
:1058D00082958F703F5F8F708A30B8F0895C8D93AE
:1058E0001D922F5F243169F74FBF8091E800877FB9
:1058F0008093E8006AE270E0CE01019654DC80916A
:10590000E8008B778093E80056CF805DE8CF609108
:10591000860470918704AE014F5F5F4F86DBBC0148
:10592000892B09F448CF9091E800977F9093E80085
:1059300089819A8196DCE3CF803809F03CCF809151
:10594000E800877F8093E80080917D048093F100D8
:1059500028CF811130CF90918404923008F02BCF62
:105960008091E800877F8093E80090937D040CDDB0
:1059700080917D04811529F084E08093810453DABD
:105980001ACF8091E30087FDF7CF81E0F6CF08952D
:10599000CF9380918104811591F08091E900C091AD
:1059A000EC008F70C0FBCC27C7F9C82B1092E90020
:1059B0008091E80083FDB3DECF70C093E900CF9102
:1059C0000895EE0FFF1F0590F491E02D09942F929A
:1059D0003F924F925F926F927F928F929F92AF927F
:1059E000BF92CF92DF92EF92FF920F931F93CF93CC
:1059F000DF93CDB7DEB7CA1BDB0B0FB6F894DEBF63
:105A00000FBECDBF09942A88398848885F846E8488
:105A10007D848C849B84AA84B984C884DF80EE80D2
:105A2000FD800C811B81AA81B981CE0FD11D0FB6DB
:105A3000F894DEBF0FBECDBFED010895FB01DC0180
:105A400004C08D910190801921F441505040C8F755
:105A5000881B990B0895F999FECF92BD81BDF89AE4
:105A6000992780B50895A8E1B0E042E050E020C059
:105A7000262FF999FECF92BD81BDF89A019700B407
:105A8000021639F01FBA20BD0FB6F894FA9AF99AA7
:105A90000FBE08950396272FECDFEADF252FE9DFFD
:105AA000242FE7CF0196272FE4DFE2CFDC01CB01E3
:105AB000FC01F999FECF06C0F2BDE1BDF89A31961E
:105AC00000B40D9241505040B8F70895F894FFCFBC
:105AD000DE164B17E616B016B416EA16B816EE1612
